:100000000C94F1090C941C0A0C941C0A0C941C0A04
:100010000C941C0A0C941C0A0C941C0A0C941C0AC8
:100020000C941C0A0C941C0A0C942A600C94A45E78
:100030000C941C0A0C941C0A0C941C0A0C941C0AA8
:100040000C941C0A0C946F460C941C0A0C941C0A09
:100050000C941C0A0C941C0A0C94CB4E0C946D5DF1
:100060000C941C0A0C941C0A0C941C0A0C941C0A78
:100070000C941C0A0C941C0A0C941C0A0C941C0A68
:100080000C941C0A0C941C0A0C941C0A0C941C0A58
:100090000C949B590C941C0A084AD73B3BCE016E2A
:1000A00084BCBFFDC12F3D6C74319ABD56833DDACF
:1000B0003D00C77F11BED9E4BB4C3E916BAAAABEDE
:1000C000000000803F05A84CCDB2D44EB93836A907
:1000D000020C50B9918688083CA6AAAA2ABE000044
:1000E00000803F6563686F3A0048617264636F64C3
:1000F00065642044656661756C7420536574746929
:100100006E6773204C6F6164656400204400204971
:10011000002020204D3330312050005049442073BE
:10012000657474696E67733A00205A002059002084
:10013000204D323036205800486F6D65206F66665E
:1001400073657420286D6D293A00204500205A00FF
:1001500020580020420020540020204D323035200D
:100160005300416476616E636564207661726961F3
:10017000626C65733A20533D4D696E206665656417
:100180007261746520286D6D2F73292C20543D4DAC
:10019000696E2074726176656C2066656564726153
:1001A000746520286D6D2F73292C20423D6D696E7A
:1001B000696D756D207365676D656E742074696D0A
:1001C0006520286D73292C20583D6D6178696D7507
:1001D0006D205859206A65726B20286D6D2F732928
:1001E0002C20205A3D6D6178696D756D205A206A0A
:1001F00065726B20286D6D2F73292C2020453D6D75
:100200006178696D756D2045206A65726B20286D77
:100210006D2F73290020540020204D32303420539C
:1002200000416363656C65726174696F6E3A205357
:100230003D616363656C65726174696F6E2C2054F7
:100240003D7265747261637420616363656C65728D
:100250006174696F6E00204500205A00205900200B
:10026000204D3230312058004D6178696D756D2018
:10027000416363656C65726174696F6E20286D6D92
:100280002F7332293A00204500205A0020590020BF
:10029000204D3230332058004D6178696D756D20E6
:1002A00066656564726174657320286D6D2F7329AE
:1002B0003A00204500205A0020590020204D3932B4
:1002C00020580053746570732070657220756E69D4
:1002D000743A006563686F3A004572726F723A0053
:1002E0005072696E7465722073746F7070656420EB
:1002F00064756520746F206572726F72732E20466C
:10030000697820746865206572726F7220616E640E
:1003100020757365204D39393920746F20726573EB
:10032000746172742E202854656D706572617475E5
:1003300072652069732072657365742E205365742D
:1003400020697420616674657220726573746172CD
:1003500074696E6729005072696E746572206861F5
:100360006C7465642E206B696C6C28292063616C49
:100370006C656421006F6B00526573656E643A2092
:10038000002200556E6B6E6F776E20636F6D6D612E
:100390006E643A2022007A5F6D696E3A2000795FC0
:1003A0006D696E3A2000785F6D696E3A2000205AC0
:1003B0003A0020593A0020436F756E7420583A2055
:1003C0000020453A00205A3A0020593A00583A0095
:1003D0004649524D574152455F4E414D453A4D6158
:1003E000726C696E2056313B20537072696E746571
:1003F000722F6772626C206D617368757020666F12
:10040000722067656E36204649524D574152455F0E
:1004100055524C3A68747470733A2F2F6769746838
:1004200075622E636F6D2F4572696B5A616C6D2F0B
:100430004D61726C696E2F2050524F544F434F4C98
:100440005F56455253494F4E3A312E30204D41436D
:1004500048494E455F545950453A4D656E64656C48
:100460002045585452554445525F434F554E543AD7
:100470003120555549443A30303030303030302D0D
:10048000303030302D303030302D303030302D3075
:1004900030303030303030303030300A0020423AA6
:1004A0000020453A00543A0020573A0020453A00CF
:1004B000543A002042403A0020403A00202F003AAF
:1004C00000205400202F0020423A00202F006F6BA4
:1004D00020543A002569206D696E2C20256920730F
:1004E00065630000002F4300007A4300001643FFBD
:1004F000FFFF0000000000000000000000000000FE
:100500000000000000000000000000002F43000079
:100510007A430000164300000000000000000000C5
:10052000803F5072696E7465722073746F7070656D
:10053000642064756520746F206572726F72732E0B
:100540002046697820746865206572726F72206138
:100550006E6420757365204D39393920746F2072AF
:100560006573746172742E202854656D70657261B4
:10057000747572652069732072657365742E2053DB
:100580006574206974206166746572207265737485
:10059000617274696E6729006F6B004E6F204C6941
:1005A0006E65204E756D6265722077697468206390
:1005B0006865636B73756D2C204C617374204C6996
:1005C0006E653A20004E6F20436865636B73756DEE
:1005D0002077697468206C696E65206E756D626540
:1005E000722C204C617374204C696E653A20006354
:1005F0006865636B73756D206D69736D6174636895
:100600002C204C617374204C696E653A20004C6953
:100610006E65204E756D626572206973206E6F7411
:10062000204C617374204C696E65204E756D626557
:10063000722B312C204C617374204C696E653A200A
:10064000004D313130002020506C616E6E65724279
:10065000756666657242797465733A200020467249
:100660006565204D656D6F72793A2000417072208A
:100670003134203230313400436F6D70696C656401
:100680003A2000286E6F6E652C2064656661756C7B
:100690007420636F6E6669672900207C2041757441
:1006A000686F723A2000417072203134203230314C
:1006B000342031333A34343A303600204C6173748C
:1006C00020557064617465643A2000312E302E30FC
:1006D000004D61726C696E0020536F6674776172B1
:1006E0006520526573657400205761746368646F98
:1006F00067205265736574002042726F776E206FB9
:100700007574205265736574002045787465726E47
:10071000616C20526573657400506F776572557017
:10072000007374617274002200656E717565696E84
:10073000672022002200656E717565696E67202250
:10074000006563686F3A0020746F6F206C6F6E678E
:1007500020657874727573696F6E20707265766546
:100760006E7465640020636F6C64206578747275C4
:1007700073696F6E2070726576656E74656400458E
:10078000313A200045303A20005A3A2000593A20A8
:1007900000583A20004D53312C4D53322050696E91
:1007A000730A0024F404D9201BC40C5C0E9804C402
:1007B000095F0265077101F405F900FB04B3004805
:1007C000048700C10369005803550003034500BEB8
:1007D000023A008402310053022A00290225000453
:1007E000022000E4011C00C8011900AF01170098A5
:1007F0000114008401130071011000610110005107
:10080000010E0043010D0036010B002B010B0020EF
:10081000010B00150109000C01090003010800FB90
:10082000000800F3000800EB000700E4000600DE0B
:10083000000600D8000600D2000600CC000500C764
:10084000000500C2000500BD000400B9000400B5A9
:10085000000400B1000400AD000400A9000400A5DC
:10086000000300A20003009F0004009B0003009807
:100870000003009500020093000300900003008D28
:100880000002008B00030088000200860002008442
:10089000000300810002007F0002007D0002007B57
:1008A0000002007900020077000100760002007467
:1008B00000020072000100710002006F0002006D72
:1008C0000001006C0002006A00010069000200677C
:1008D0000001006600010065000100640002006282
:1008E00000010061000100600001005F0002005D86
:1008F0000001005C0001005B0001005A000100598A
:100900000001005800010057000100560001005589
:100910000001005400010053000000530001005288
:1009200000010051000100500001004F0001004E85
:100930000000004E0001004D0001004C0001004B82
:100940000000004B0001004A00010049000100487E
:10095000000000480001004700010046000000467A
:100960000001004500000045000100440001004373
:10097000000000430001004200000042000100416D
:1009800000000041000100400001003F0000003F66
:100990000001003E0000003E0001003D0000003D5F
:1009A0000001003C0000003C0000003C0001003B56
:1009B0000000003B0001003A0000003A000100394D
:1009C0000000003900010038000000380000003845
:1009D000000100370000003700010036000000363B
:1009E0000000003600010035000000350000003531
:1009F0000001003400000034000000340001003326
:100A0000000000330000003300010032000000321B
:100A10000000003200010031000000310000003110
:100A20000001003000000030000000300001002F05
:100A30000000002F0000002F0000002F0001002EFA
:100A40000000002E0000002E0001002D0000002DEF
:100A50000000002D0000002D0001002C0000002CE3
:100A60000000002C0000002C0001002B0000002BD7
:100A70000000002B0000002B0001002A0000002ACB
:100A80000000002A0000002A0001002900000029BF
:100A900000000029000000290000002900010028B2
:100AA00000000028000000280000002800000028A6
:100AB0000001002700000027000000270000002799
:100AC000000000270001002600000026000000268C
:100AD000000000260000002600010025000000257F
:100AE0000000002500000025000000250000002572
:100AF0000001002400000024000000240000002465
:100B00000000002400010023000000230000002357
:100B10000000002300000023000000230000002349
:100B2000000100220000002200000022000000223C
:100B3000000000220000002200010021000000212E
:100B40000000002100000021000000210000002121
:100B50000000002100010020000000200000002013
:100B60000000002000000020000000200000002005
:100B7000000000200001001F0000001F0000001FF7
:100B80000000001F0000001F0000001F0000001FE9
:100B90000001001E0000001E0000001E0000001EDC
:100BA00000000024F4D43050C38E20C2A24017822B
:100BB0008B7011127A910D816CD90AA861E108C776
:100BC000586607615143061E4B5D05C145A7041ACF
:100BD000411104093D9803713931034036DB026548
:100BE000339102D4305402802E1D02632CEE017525
:100BF0002AC501B028A001102781018F2564012B8F
:100C0000244B01E0223401AC211F018D200D018015
:100C10001FFC00841EED00971DDF00B81CD200E60B
:100C20001BC600201BBC00641AB200B219A8000A3F
:100C300019A0006A189900D117910040178B00B5D0
:100C400016840031167E00B31579003A157300C77B
:100C5000146F0058146A00EE1366008813630025B1
:100C6000135E00C7125B006C12570015125400C1CE
:100C700011510070114F0021114B00D61049008D09
:100C80001047004610440002104200C00F40008090
:100C90000F3E00420F3C00060F3B00CB0E38009386
:100CA0000E37005C0E3500270E3400F30D3200C104
:100CB0000D3100900D3000600D2E00320D2D00051D
:100CC0000D2C00D90C2B00AE0C2900850C29005CE2
:100CD0000C2700350C27000E0C2600E80B2400C45E
:100CE0000B2400A00B23007D0B23005A0B2100399D
:100CF0000B2100180B2000F80A1F00D90A1E00BBA8
:100D00000A1E009D0A1D00800A1D00630A1C004780
:100D10000A1B002C0A1B00110A1A00F7091A00DD31
:100D2000091900C4091900AB091900920917007BC1
:100D3000091800630917004C09160036091600202F
:100D40000916000A091500F5081500E0081400CC82
:100D5000081400B8081400A4081400900813007DBB
:100D60000812006B081300580812004608120034DD
:100D7000081100230811001208110001081100F0E9
:100D8000071000E0071000D0071000C0071000B0E7
:100D9000070F00A107100091070E0083070F0074D2
:100DA000070F0065070E0057070E0049070E003BAE
:100DB000070D002E070E0020070D0013070D00067B
:100DC000070D00F9060C00ED060D00E0060C00D43E
:100DD000060C00C8060C00BC060C00B0060C00A4F3
:100DE000060B0099060C008D060B0082060B00779F
:100DF000060B006C060B0061060A0057060B004C40
:100E0000060A0042060A0038060A002E060A0024D6
:100E1000060A001A060A001006090007060A00FD65
:100E2000050900F4050900EB050900E2050900D9F0
:100E3000050900D0050900C7050900BE050900B570
:100E4000050800AD050800A50509009C05080094EB
:100E50000508008C050800840508007C050800745E
:100E60000508006C050700650508005D05070056CC
:100E70000508004E05070047050700400508003833
:100E8000050700310507002A050700230507001C98
:100E9000050600160507000F0507000805060002F5
:100EA000050700FB040600F5040700EE040600E851
:100EB000040600E2040700DB040600D5040600CFA8
:100EC000040600C9040600C3040600BD040600B7FA
:100ED000040600B1040500AC040600A6040600A048
:100EE0000405009B04060095040500900406008A92
:100EF00004050085040500800406007A04050075D9
:100F0000040500700405006B04050066040500611B
:100F10000405005C04050057040500520405004D5B
:100F200004050048040500430405003E0404003A9B
:100F300004050035040500300404002C04050027D6
:100F4000040400230405001E0404001A040400160F
:100F5000040500110404000D040400090405000444
:100F600004040000040400FC030400F8030400F47B
:100F7000030400F0030400EC030400E8030400E4AD
:100F8000030400E0030400DC030400D8030400D4DD
:100F9000030400D0030400CC030400C8030300C50D
:100FA0000303006563686F3A00205A3A0020593AFB
:100FB0000020583A00656E6473746F70732068691E
:100FC000743A20004572726F723A0054656D706514
:100FD000726174757265206865617465642062650C
:100FE00064207377697463686564206F66662E2079
:100FF0004D415854454D502074726967676572655C
:1010000064202121003A204578747275646572204D
:101010007377697463686564206F66662E204D4936
:101020004E54454D5020747269676765726564203F
:1010300021003A204578747275646572207377696F
:101040007463686564206F66662E204D4158544570
:101050004D502074726967676572656420210020B5
:101060002D20496E76616C696420657874727564B0
:101070006572206E756D62657220210050494420B2
:101080004175746F74756E652066696E6973686505
:1010900064212050757420746865206C617374201D
:1010A0004B702C204B6920616E64204B6420636F71
:1010B0006E7374616E74732066726F6D2061626FFF
:1010C000766520696E746F20436F6E66696775720E
:1010D0006174696F6E2E6800504944204175746FC9
:1010E00074756E65206661696C6564212074696D34
:1010F000656F75740020403A006F6B20543A006FA2
:101100006B20423A00504944204175746F74756EEB
:1011100065206661696C6564212054656D70657237
:10112000617475726520746F6F206869676800204C
:101130004B643A2000204B693A2000204B703A2043
:101140000020436C61737369632050494420002080
:1011500054753A2000204B753A2000206D61783A92
:101160002000206D696E3A200020643A2000206241
:101170006961733A200070012C0190012701B001D0
:101180002201C0011D01F0011801100213013002FB
:101190000E016002090190020401C002FF00000379
:1011A000FA004003F5008003F000D003EB002004B8
:1011B000E6007004E100E004DC004005D700C00553
:1011C000D2004006CD00D006C8008007C30030081A
:1011D000BE00F008B900C009B400B00AAF00B00BFF
:1011E000AA00D00CA500000EA000500F9B00C0105C
:1011F00096005012910000148C00C0158700B017A3
:101200008200B0197D00D01B7800001E73004020C2
:101210006E0090226900F024640040275F0090294E
:101220005A00E02B5500102E500020304B00103299
:101230004600E033410090353C00103737007038ED
:101240003200A0392D00B03A2800A03B2300603CBA
:101250001E00103D1900903D1400103E0F00703E1E
:101260000A00C03E0500003F0000012902290429B0
:1012700008291029202940298029012C022C012627
:101280000226042608261026202640268026402CEA
:10129000802C01230223042308231023202340232E
:1012A000802301200220042008201020202040203C
:1012B0008020102C202C012F022F042F082F102FFC
:1012C000202F402F802F7EFE7EFD7EFB7EF77EEF5F
:1012D0007EDF7EBF7E7F000100000A131200020045
:1012E000001C1343000300005F130401030904639F
:1012F0001318020309047D13160303090495130C44
:101300000001C10201803601813612010002020093
:101310000020C016830400010102030109024300FA
:10132000020100C03209040000010202010005248C
:101330000010010524010001042402060524060012
:10134000010705820308004009040100020A0000A9
:101350000007050302400000070584024000000466
:1013600003090418035400650065006E00730079DA
:10137000006400750069006E006F000000160355E0
:1013800000530042002000530065007200690061B4
:10139000006C0000000C03310032003300340035D3
:1013A000000000494E46494E4954594E414ECDCC5D
:1013B000CC3D0AD7233C17B7D13877CC2B32959543
:1013C000E6241FB14F0A000020410000C84200403F
:1013D0001C4620BCBE4CCA1B0E5AAEC59D747A5822
:1013E0007B6311241FBECFEFD0E2DEBFCDBF13E081
:1013F000A0E0B1E0E8E8F2ED00E00BBF02C007902A
:101400000D92AC31B107D9F71BBE1BE0ACE1B3E0E4
:1014100001C01D92AC3EB107E1F713E1C2EED3E18A
:1014200004C02297FE010E94FC68CE3DD107C9F797
:101430000E94A8600C9442690C940000A0E0B0E007
:10144000E4E2FAE00C941169EC015B0161157105AD
:1014500019F0FB0191838083F9908F2D90E00E9419
:101460000069892BC9F7FDE2FF1621F4F990EE24FB
:10147000E39405C02BE2F21609F4F990EE248E01F4
:1014800001501040C80163EA73E143E050E062D2CA
:10149000892BF9F48E010E5F1F4FC80166EA73E1D4
:1014A00045E050E057D2892B19F48E01095F1F4F98
:1014B000A114B10419F0F50111830083E0FC04C00C
:1014C00070E090E080E813C070E090E080E86FEF9B
:1014D00007C1C8016BEA73E143E050E03BD2892BBE
:1014E00069F4A114B10429F470E090E080EC6FE796
:1014F000F7C02296F501D183C083F6CF88249924C2
:1015000040E050E060E070E0EF2DE053EA30A0F5FD
:10151000F2E0EF2A8E2D90E09C0128703070E2FE00
:1015200006C0232B79F50894811C911C2BC0232B1A
:1015300019F0089481089108DB01CA0112E0880FB4
:10154000991FAA1FBB1F1A95D1F7480F591F6A1F71
:101550007B1F440F551F661F771F4E0F511D611DC6
:10156000711D483929E9520729E9620729E1720703
:1015700048F084E0E82A06C0EE3F31F4E3FC39C0CD
:1015800098E0E92AF990C0CFE53311F0E53189F50B
:1015900029912D3219F4E0E1EE2A05C02B3219F021
:1015A00081E090E003C0299182E090E0E22FE053D7
:1015B000EA3018F0C81BD90B1CC020E030E0FCE07A
:1015C00020383F075CF4C901880F991F880F991FC5
:1015D000280F391F220F331F2E0F311DE991E053C1
:1015E000EA3068F3E4FE03C0309521953F4F820E48
:1015F000931ECE2CDD24E1FE07C0A114B10421F01E
:101600002197F501D183C083CB01BA010E946565A2
:101610007B018C01F3E0CF22DD2423E0C216D1044C
:1016200021F417FB109517F9109557016801C801AF
:10163000B70120E030E040E050E00E94C56488231C
:1016400009F44AC097FE0DC022ECE22E23E1F22EEF
:101650009094819491089394C0E2D0E000E010E06F
:1016600012C09AEDE92E93E1F92EF6CFF7012591FC
:10167000359145915491C601B5010E94A5675B0162
:101680006C018C1A9D0A8C169D0684F7D595C7951A
:101690000F5F1F4F0630110529F08CEF9FEFE80E0A
:1016A000F91EF1CFC501D6017C018D018C2D880F6B
:1016B0008D2D881F8F3F51F0C601B50120E030E02D
:1016C00040E050E00E94C564882331F482E290E05B
:1016D0009093EB0B8093EA0B7E2D9F2D802F612F33
:1016E000272F392F482F562FB901CA01CDB7DEB7A2
:1016F000ECE00C942D692F923F925F926F927F9253
:101700008F929F92AF92BF92CF92DF92EF92FF9211
:101710000F931F93CF93DF938C011B01EA01611597
:10172000710519F0FB0191838083209749F0CE0168
:101730000297839728F020E030E040E050E0F6C0C8
:10174000F801A1908F018A2D90E00E940069892BF9
:10175000B9F7FDE2AF1631F4F801A1908F015524DD
:10176000539407C0FBE2AF1619F4F801A1908F0162
:101770005524209719F0C031D105C1F4F0E3AF161C
:1017800079F4F8018081883711F0883549F4F8013F
:10179000A1800E5F1F4FF2E05F2AC0E1D0E006C0DB
:1017A000209721F480E3A816E9F427C0C830D105BA
:1017B00031F1C930D10524F4C230D10531F50CC066
:1017C000CA30D10589F0C031D105F9F4C12CD12C32
:1017D000E12CB8E0FB2E28C0C12CD12CE12CA0E4D8
:1017E000FA2E22C0CAE0D0E0FCECCF2EFCECDF2EBB
:1017F000FCECEF2EFCE0FF2E17C0C8E0D0E0C12CBF
:10180000D12CE12CE0E1FE2E0FC09E01442737FDD4
:101810004095542F60E070E080E090E80E94A96855
:10182000C901DA016C017D0120E030E040E050E0C8
:1018300060E03E01882477FC8094982C70EDB72EF0
:10184000BA0CE9E0EB1570F48A2D81548A3118F452
:1018500099ECB92E06C08A2D81568A3150F589EA55
:10186000B82EBA0C8B2D90E08C179D0714F56F3FA6
:10187000E1F0C216D306E406F506B0F0CA01B901DC
:10188000A40193010E9477689B01AC012B0D311DCF
:10189000411D511D2130F0E03F07F0E04F07F0E817
:1018A0005F0710F461E001C06FEFF801A1908F01B4
:1018B000C5CF2114310481F0662331F0015010406E
:1018C000F1011183008308C051FE1AC0025010407C
:1018D000F1011183008314C067FF12C050FC05C0E2
:1018E0002FEF3FEF4FEF5FE704C020E030E040E034
:1018F00050E882E290E09093EB0B8093EA0B16C0E5
:1019000050FE08C050954095309521953F4F4F4F60
:101910005F4F0CC057FF0AC082E290E09093EB0B40
:101920008093EA0B2FEF3FEF4FEF5FE7B901CA015A
:10193000DF91CF911F910F91FF90EF90DF90CF90AB
:10194000BF90AF909F908F907F906F905F903F90EF
:101950002F900895FB01DC014150504088F08D919B
:1019600081341CF08B350CF4805E659161341CF081
:101970006B350CF4605E861B611171F3990B089551
:10198000881BFCCFFB0155915523A9F0BF01DC0159
:101990004D9145174111E1F759F4CD010590002013
:1019A00049F04D9140154111C9F3FB014111EFCFB1
:1019B00081E090E001970895FC018191861721F064
:1019C0008823D9F7992708953197CF010895AEE07C
:1019D000B0E0EDEEFCE00C9419690D891E898EE0F3
:1019E0008C831A8309838FEF9FE79E838D839E01EB
:1019F000275E3F4FCE0101966F89788DA9010AD0ED
:101A00002F813885020F131FF80110822E96E4E013
:101A10000C943569ABE0B0E0E0E1FDE00C940B69BB
:101A20003C012B015A01FC0117821682838181FD42
:101A300003C06FEF7FEFB9C19AE0892E1E010894B1
:101A4000211C311CF3012381F20123FD859123FF29
:101A500081912F01882309F4A5C1853239F423FD32
:101A6000859123FF81912F01853221F490E0B3010C
:101A7000B7D1E8CF982FFF24EE249924FFE1FF157A
:101A8000D0F09B3269F09C3228F4903259F09332B6
:101A900091F40EC09D3249F0903369F441E024C0C6
:101AA00052E0F52A84E0F82A28C098E0F92A25C0F7
:101AB000E0E1FE2A22C0F7FC29C0892F80538A303A
:101AC00070F4F6FE05C0989C902C1124980E15C059
:101AD000E89CE02C1124E80EF0E2FF2A0EC09E32B2
:101AE00029F4F6FC5FC140E4F42A07C09C3619F4DF
:101AF00050E8F52A02C0983649F4F20123FD959189
:101B000023FF91912F01992309F0B8CF892F855494
:101B1000833018F08052833038F444E050E0A40E53
:101B2000B51E5FE359830FC0933631F0933779F0D8
:101B3000933509F052C01FC0F5018081898342E0CE
:101B400050E0A40EB51E610101E010E011C0F501E6
:101B5000C080D180F6FC03C06FEF7FEF02C0692D1B
:101B600070E042E050E0A40EB51EC6012ED18C01FB
:101B70005FE7F52213C0F501C080D180F6FC03C0F9
:101B80006FEF7FEF02C0692D70E042E050E0A40EDD
:101B9000B51EC6010FD18C0150E8F52AF3FE06C030
:101BA00018C080E290E0B3011BD1EA948E2D90E042
:101BB00008171907B0F30DC0F601F7FC8591F7FE81
:101BC00081916F0190E0B3010BD1E110EA940150D3
:101BD00010400115110581F7E2C0943611F09936D5
:101BE00061F5F7FE08C0F501208131814281538102
:101BF00084E090E00AC0F501808191819C01442736
:101C000037FD4095542F82E090E0A80EB91E9FE664
:101C1000F92257FF09C050954095309521953F4FC7
:101C20004F4F5F4FE0E8FE2ACA01B901A1012AE047
:101C300030E002D1D82ED2183FC0953729F41F2D9D
:101C40001F7E2AE030E01DC01F2D197F9F3661F0F6
:101C5000903720F4983509F0A5C00FC0903739F0BF
:101C6000983709F09FC004C028E030E00AC0106136
:101C700014FD146020E130E004C014FD166020E182
:101C800032E017FF08C0F501608171818281938184
:101C900044E050E008C0F50180819181BC0180E002
:101CA00090E042E050E0A40EB51EA101C5D0D82EB0
:101CB000D2188FE7F82EF122F6FE0BC05EEFF52268
:101CC000D91438F4F4FE07C0F2FC05C08FEEF822F8
:101CD00002C01D2D01C0192DF4FE0DC0FE01ED0D39
:101CE000F11D8081803319F499EEF92208C01F5F3D
:101CF000F2FE05C003C08F2D867809F01F5F0F2DFF
:101D0000F3FC13C0F0FE0EC01E1510F09D2C0AC08F
:101D10009D2C9E0C911A1E2D05C080E290E0B3010F
:101D20005FD01F5F1E15C8F304C01E1510F4E11A22
:101D300001C0EE2404FF0EC080E390E0B30150D058
:101D400002FF1BC001FD03C088E790E00EC088E5DC
:101D500090E00BC0802F867881F001FF02C08BE2FB
:101D600001C080E2F7FC8DE290E0B30139D005C0FC
:101D700080E390E0B30134D09A94D914C8F3DA9494
:101D8000F101ED0DF11D808190E0B30129D0DD203E
:101D9000B1F705C080E290E0B30122D0EA94EE20D2
:101DA000C9F750CEF30166817781CB012B96E2E132
:101DB0000C942769FC010590615070400110D8F720
:101DC000809590958E0F9F1F0895FC016150704083
:101DD00001900110D8F7809590958E0F9F1F089560
:101DE0000F931F93CF93DF938C01EB018B8181FFC6
:101DF0001BC082FF0DC02E813F818C819D812817E1
:101E0000390764F4E881F9810193F983E88306C016
:101E1000E885F985802F0995892B31F48E819F8182
:101E200001969F838E8302C00FEF1FEFC801DF91E1
:101E3000CF911F910F910895FA01AA27283051F1EF
:101E4000203181F1E8946F936E7F6E5F7F4F8F4FEB
:101E50009F4FAF4FB1E03ED0B4E03CD0670F781F4A
:101E6000891F9A1FA11D680F791F8A1F911DA11D2F
:101E70006A0F711D811D911DA11D20D009F4689468
:101E80003F912AE0269F11243019305D3193DEF610
:101E9000CF010895462F4770405D4193B3E00FD0C6
:101EA000C9F7F6CF462F4F70405D4A3318F0495DB1
:101EB00031FD4052419302D0A9F7EACFB4E0A69594
:101EC0009795879577956795BA95C9F700976105B6
:101ED000710508959B01AC010A2E0694579547950C
:101EE00037952795BA95C9F7620F731F841F951F01
:101EF000A01D0895DF93CF930F92CDB7DEB7FC01FD
:101F00006983A081B18112962D913C911397BE01F6
:101F10006F5F7F4F41E050E0F90109950F90CF913D
:101F2000DF9108950F931F93DF93CF93CDB7DEB763
:101F3000E0970FB6F894DEBF0FBECDBFDE0111965D
:101F4000E9EAF2E080E101900D928150E1F7DE01D3
:101F50005196E9E9F2E080E101900D928150E1F7BC
:101F6000DE019196E9E8F2E080E101900D92815066
:101F7000E1F789819A81AB81BC8180933805909388
:101F80003905A0933A05B0933B0589899A89AB89B5
:101F9000BC898093280590932905A0932A05B093C6
:101FA0002B0589A19AA1ABA1BCA180934805909370
:101FB0004905A0934A05B0934B058D819E81AF8161
:101FC000B88580933C0590933D05A0933E05B09362
:101FD0003F058D899E89AF89B88D80932C0590939C
:101FE0002D05A0932E05B0932F058DA19EA1AFA125
:101FF000B8A580934C0590934D05A0934E05B093E2
:102000004F0589859A85AB85BC8580934005909363
:102010004105A0934205B0934305898D9A8DAB8D00
:10202000BC8D8093300590933105A0933205B09319
:10203000330589A59AA5ABA5BCA5809350059093BF
:102040005105A0935205B09353058D859E85AF85AC
:10205000B8898093440590934505A0934605B093B5
:1020600047058D8D9E8DAF8DB8A1809334059093DB
:102070003505A0933605B09337058DA59EA5AFA570
:10208000B8A98093540590935505A0935605B09335
:1020900057050E94863480E090E8ABE3B5E4809376
:1020A0005C0590935D05A0935E05B0935F058093FA
:1020B000600590936105A0936205B093630520E0ED
:1020C00030E040E050E020935805309359054093AC
:1020D0005A0550935B0580E29EE4A0E0B0E0809357
:1020E000240590932505A0932605B09327052093FA
:1020F000700530937105409372055093730580E02D
:1021000090E0A0EAB1E48093640590936505A09304
:102110006605B09367058DEC9CECACECBEE3809358
:10212000680590936905A0936A05B0936B0580E0FC
:1021300090E0A0EAB0E480936C0590936D05A093C5
:102140006E05B0936F0520933A0330933B034093A1
:102150003C0350933D032093360330933703409361
:102160003803509339032093320330933303409361
:102170003403509335038AE999E9A1EBB1E48093E4
:102180006C0290936D02A0936E02B0936F0261E7B0
:102190007DE38AE89FE30E94354E6093700270935E
:1021A0007102809372029093730260E070E084EE9B
:1021B00092E40E94414E6093740270937502809382
:1021C0007602909377020E94034E80E090E0A0E8B0
:1021D000BFE38093780290937902A0937A02B09340
:1021E0007B02E3EEF0E064918F0107C080EE9BE09C
:1021F00081DE0F5F1F4FF80164916623B9F7E9EEA6
:10220000F0E064918F0107C080EE9BE073DE0F5F0A
:102210001F4FF80164916623B9F780EE9BE06AE0F6
:1022200069DEE0960FB6F894DEBF0FBECDBFCF914A
:10223000DF911F910F910895CF93DF93DB010D90F4
:102240000020E9F71197A61BB70BEC01E881F98193
:102250000280F381E02DAD010995DF91CF910895C2
:102260000F931F93CF93DF9303EE10E0F801649177
:10227000E80106C080EE9BE03DDE2196FE01649100
:102280006623C1F7E3ECF2E06491EF0106C080EE53
:102290009BE030DE2196FE0164916623C1F780EE5B
:1022A0009BE06AE027DEF8016491C3EED0E006C04F
:1022B00080EE9BE01FDE2196FE0164916623C1F74C
:1022C000409138055091390560913A0570913B0570
:1022D0008BEB92E086D740913C0550913D05609193
:1022E0003E0570913F0588EB92E07BD74091400519
:1022F00050914105609142057091430585EB92E054
:1023000070D7409144055091450560914605709104
:10231000470582EB92E065D780EE9BE060E071E0DC
:102320008BDF80EE9BE06AE0E5DDF8016491C3EEAF
:10233000D0E006C080EE9BE0DDDD2196FE016491D9
:102340006623C1F7E8E9F2E06491EF0106C080EE90
:102350009BE0D0DD2196FE0164916623C1F780EEFB
:102360009BE06AE0C7DDF8016491C3EED0E006C0EF
:1023700080EE9BE0BFDD2196FE0164916623C1F7EC
:10238000409128055091290560912A0570912B05EF
:102390008FE892E026D740912C0550912D05609151
:1023A0002E0570912F058CE892E01BD740913005E7
:1023B00050913105609132057091330589E892E0C2
:1023C00010D74091340550913505609136057091D4
:1023D000370586E892E005D780EE9BE060E071E08B
:1023E0002BDF80EE9BE06AE085DDF8016491C3EEAF
:1023F000D0E006C080EE9BE07DDD2196FE01649179
:102400006623C1F7E8E6F2E06491EF0106C080EED2
:102410009BE070DD2196FE0164916623C1F780EE9A
:102420009BE06AE067DDF8016491C3EED0E006C08E
:1024300080EE9BE05FDD2196FE0164916623C1F78B
:10244000409148055091490560914A0570914B05AE
:102450008FE592E05FD240914C0550914D0560911F
:102460004E0570914F058CE592E054D24091500595
:1024700050915105609152057091530589E592E0A4
:1024800049D240915405509155056091560570917F
:10249000570586E592E03ED280EE9BE060E071E079
:1024A000CBDE80EE9BE06AE025DDF8016491C3EEAF
:1024B000D0E006C080EE9BE01DDD2196FE01649118
:1024C0006623C1F7E1E2F2E06491EF0106C080EE1D
:1024D0009BE010DD2196FE0164916623C1F780EE3A
:1024E0009BE06AE007DDF8016491C3EED0E006C02E
:1024F00080EE9BE0FFDC2196FE0164916623C1F72C
:1025000040915C0550915D0560915E0570915F059D
:1025100088E192E066D64091600550916105609136
:1025200062057091630585E192E05BD680EE9BE0E9
:1025300060E071E081DE80EE9BE06AE0DBDCF801C8
:102540006491C3EED0E006C080EE9BE0D3DC219620
:10255000FE0164916623C1F7E2E6F1E06491EF01C8
:1025600006C080EE9BE0C6DC2196FE0164916623E6
:10257000C1F780EE9BE06AE0BDDCF8016491C3EE38
:10258000D0E006C080EE9BE0B5DC2196FE016491B0
:102590006623C1F7409158055091590560915A053D
:1025A00070915B0589E591E01CD6409170055091D2
:1025B0007105609172057091730586E591E011D601
:1025C00040912405509125056091260570912705BD
:1025D00083E591E09FD1409164055091650560913C
:1025E00066057091670580E591E0FBD5409168052F
:1025F0005091690560916A0570916B058DE491E0D9
:10260000F0D540916C0550916D0560916E0570910B
:102610006F058AE491E0E5D580EE9BE060E071E033
:102620000BDE80EE9BE06AE065DCF8016491C3EEAE
:10263000D0E006C080EE9BE05DDC2196FE01649157
:102640006623C1F7E8E3F1E06491EF0106C080EE94
:102650009BE050DC2196FE0164916623C1F780EE79
:102660009BE06AE047DCF8016491C3EED0E006C06D
:1026700080EE9BE03FDC2196FE0164916623C1F76A
:1026800040913203509133036091340370913503CC
:102690008FE291E0A6D540913603509137036091C7
:1026A0003803709139038CE291E09BD540913A0355
:1026B00050913B0360913C0370913D0389E291E0AE
:1026C00090D580EE9BE060E071E0B6DD80EE9BE0AF
:1026D0006AE010DCF8016491C3EED0E006C080EE41
:1026E0009BE008DC2196FE0164916623C1F7EBE1D3
:1026F000F1E06491EF0106C080EE9BE0FBDB2196E8
:10270000FE0164916623C1F780EE9BE06AE0F2DB94
:10271000F8016491C3EED0E006C080EE9BE0EADBF6
:102720002196FE0164916623C1F740916C0250919D
:102730006D0260916E0270916F0281E191E051D55E
:102740006091700270917102809172029091730297
:102750000E943B4EAB01BC018EE091E042D56091FE
:1027600074027091750280917602909177020E94B6
:10277000474EAB01BC018BE091E033D580EE9BE08E
:1027800060E071E059DD80EE9BE06AE0B3DBDF9151
:10279000CF911F910F910895CF93DF930FB6F894C7
:1027A0008091D80B9091D90BA091DA0BB091DB0BF3
:1027B0000FBE8093630390936403A0936503B0936B
:1027C0006603E5E7F3E06491EF0106C080EE9BE06D
:1027D00091DB2196FE0164916623C1F780EE9BE0B8
:1027E0006AE088DBDF91CF910895EF92FF920F931B
:1027F0001F93CF93DF93EC01E0903E03F0903F03F3
:102800000091400310914103688179818A819B8105
:10281000A80197010E94C564882324F4E882F98204
:102820000A831B83E0904203F0904303009144032A
:10283000109145036C817D818E819F81A801970154
:102840000E94C564882324F4EC82FD820E831F83DA
:10285000E0904603F090470300914803109149032C
:10286000688579858A859B85A80197010E94C56442
:10287000882324F4E886F9860A871B87E0904102C2
:10288000F0904202009143021091440268817981E4
:102890008A819B81A80197010E94D366181624F4AF
:1028A000E882F9820A831B83E0904502F090460299
:1028B00000914702109148026C817D818E819F8139
:1028C000A80197010E94D366181624F4EC82FD82B9
:1028D0000E831F83E0904902F0904A0200914B0260
:1028E00010914C02688579858A859B85A80197019E
:1028F0000E94D366181624F4E886F9860A871B8797
:10290000DF91CF911F910F91FF90EF9008958091EB
:1029100058030895EF92FF920F931F93CF93DF9385
:10292000EC017A018B01FC01649106C080EE9BE012
:10293000E1DA2196FE0164916623C1F780EE9BE007
:10294000B801A70120E00E94CA60DF91CF911F91DA
:102950000F91FF90EF900895CF93DF930E94264E42
:1029600080915803882309F031C081E08093580397
:1029700080915B0390915C03A0915D03B0915E0335
:1029800080935F0390936003A0936103B09362030D
:10299000E9EDF2E06491EF0106C080EE9BE0AADA77
:1029A0002196FE0164916623C1F7E0EEF2E06491A6
:1029B000EF0106C080EE9BE09DDA2196FE01649156
:1029C0006623C1F780EE9BE06AE094DADF91CF9155
:1029D0000895CF93DF93F8940E94264E779A109231
:1029E0004A03769A10924B03479A10924C03439AEB
:1029F000E9EDF2E06491EF0106C080EE9BE07ADA47
:102A00002196FE0164916623C1F7E6E5F3E0649147
:102A1000EF0106C080EE9BE06DDA2196FE01649125
:102A20006623C1F780EE9BE06AE064DAFFCFEF92A5
:102A3000FF920F931F930FB6F8948091D80B90914B
:102A4000D90BA091DA0BB091DB0B0FBEE0906703BE
:102A5000F09068030091690310916A032091630369
:102A6000309164034091650350916603821B930B80
:102A7000A40BB50BE816F9060A071B0730F4E1149E
:102A8000F1040105110509F0A4DFE0904E02F09079
:102A90004F020091500210915102E114F10401051E
:102AA000110561F10FB6F8948091D80B9091D90B74
:102AB000A091DA0BB091DB0B0FBE20916303309134
:102AC00064034091650350916603821B930BA40B32
:102AD000B50BE816F9060A071B0780F49091650A02
:102AE0008091660A981751F4779A10924A03769A61
:102AF00010924B03479A10924C03439A0E944F3412
:102B00001F910F91FF90EF9008956F927F928F9297
:102B10009F92AF92BF92CF92DF92EF92FF920F936C
:102B20001F93F82E60916B0370916C0380916D037D
:102B300090916E0320916F03309170034091710367
:102B4000509172030E94E0663B014C0100D000D01E
:102B500000D00DB71EB70F5F1F4F60913902709103
:102B60003A02882777FD8095982F0E94676520910B
:102B700052023091530240915402509155020E94EA
:102B8000A56720E030E040E752E40E94CC6420E0FA
:102B900030E048EC52E40E94CC645B016C01F80127
:102BA0006082718282829382F48280914D03858358
:102BB00082E293E067E773E04BE653E020E001E058
:102BC00032E0E32E0E94B42F809177039091780336
:102BD000A0917903B0917A03809322039093230309
:102BE000A0932403B093250380917B0390917C03F1
:102BF000A0917D03B0917E038093260390932703D9
:102C0000A0932803B093290380917F0390918003C0
:102C1000A0918103B091820380932A0390932B03A8
:102C2000A0932C03B0932D03809183039091840390
:102C3000A0918503B091860380932E0390932F0378
:102C4000A0933003B09331030FB6F8948091D80B62
:102C50009091D90BA091DA0BB091DB0B0FBE809352
:102C6000630390936403A0936503B09366038DB7E9
:102C70009EB706960FB6F8949EBF0FBE8DBF1F91EC
:102C80000F91FF90EF90DF90CF90BF90AF909F900B
:102C90008F907F906F900895CF92DF92EF92FF9286
:102CA0000F931F9387E793E0A0DD0FB6F894809110
:102CB000D80B9091D90BA091DA0BB091DB0B0FBE22
:102CC0008093630390936403A0936503B0936603BA
:102CD0006091220370912303809124039091250336
:102CE00020917703309178034091790350917A03D2
:102CF0000E94C564882309F07AC060912603709110
:102D00002703809128039091290320917B03309120
:102D10007C0340917D0350917E030E94C56488230B
:102D200009F065C060915202709153028091540283
:102D30009091550220E030E040E752E40E94CC64DC
:102D40007B018C0187E793E06BE773E04FE753E08B
:102D500023E833E0EDE4CE2EE3E0DE2E0E94AF392F
:102D60008091770390917803A0917903B0917A03D1
:102D70008093220390932303A0932403B09325030D
:102D800080917B0390917C03A0917D03B0917E03A1
:102D90008093260390932703A0932803B0932903DD
:102DA00080917F0390918003A0918103B091820371
:102DB00080932A0390932B03A0932C03B0932D03AD
:102DC0008091830390918403A0918503B091860341
:102DD00080932E0390932F03A0933003B09331037D
:102DE0001F910F91FF90EF90DF90CF900895609129
:102DF000390270913A02882777FD8095982F0E94BA
:102E000067652091520230915302409154025091D3
:102E100055020E94A56720E030E040E752E40E949E
:102E2000CC6420E030E048EC52E488CFCF93DF93CD
:102E300080EE9BE00E945062E8E7F3E06491EF01CE
:102E400006C080EE9BE056D82196FE016491662371
:102E5000C1F740915B0350915C0360915D037091F9
:102E60005E034F5F5F4F6F4F7F4F80EE9BE00E948E
:102E70002A6180EE9BE06AE03DD88EDCDF91CF9145
:102E800008952F923F924F925F926F927F928F920E
:102E90009F92AF92BF92CF92DF92EF92FF920F93E9
:102EA0001F93DF93CF93CDB7DEB728970FB6F89473
:102EB000DEBF0FBECDBF98878F838330910508F0AA
:102EC00056C1FC01E151FB4FD4903C01660C771CCC
:102ED000660C771C93012E5D3C4F3A83298380E07A
:102EE00090E0A0E0B0E0F90180839183A283B383F6
:102EF00082E293E066E273E04AE253E02EE233E0DE
:102F00000E94CE34F301ED51FB4FE590F590059111
:102F100014916D2D772767FD7095882777FD809533
:102F2000982F0E9467651B012C01930129583C4F83
:102F30003C832B83C801B70120E030E040EC5FE325
:102F40000E94A567A20191010E94A567AB81BC8187
:102F50006D937D938D939C931397F301E75DFD4FE4
:102F6000FE83ED836081718182819381609352023F
:102F700070935302809354029093550220E030E006
:102F800040E752E40E94CC647B018C0187E793E028
:102F90006BE773E04FE753E023E833E0ADE4CA2E7C
:102FA000A3E0DA2E0E94AF390E94574680E090E0FD
:102FB000A0E0B0E0E981FA8180839183A283B383AA
:102FC00082E293E066E273E04AE253E02EE233E00D
:102FD0000E94CE34F301EA5EFA4F85909590A59059
:102FE000B490C501B4019058A20191010E94A56757
:102FF000AB81BC816D937D938D939C93139760916E
:10300000520270915302809154029091550220E037
:1030100030E040E752E40E94CC647B018C0187E7FA
:1030200093E06BE773E04FE753E023E833E00E945F
:10303000AF390E945746C501B401A50194010E9411
:10304000EC63A20191010E94A567EB81FC81608382
:10305000718382839383AD81BE816D917D918D91CA
:103060009C9120E030E040E05FE30E94A567609320
:10307000520270935302809354029093550220E0C1
:1030800030E040E752E40E94CC647B018C0187E78A
:1030900093E06BE773E04FE753E023E833E00E94EF
:1030A000AF390E945746F301EE50FB4F6591759181
:1030B00085919491F301EE5CFC4FA080B180C280B9
:1030C000D380A60195010E94EC637B018C01CB01AA
:1030D000D801E981FA8180839183A283B383F301CC
:1030E000E250FB4F6591759185919491FEE38F2E8F
:1030F000F3E09F2E860C971CA60195010E94EC63BD
:10310000D4016D937D938D939C931397F301E65FA8
:10311000FA4F6591759185919491E1E4F2E06E0E1C
:103120007F1EA60195010E94EC63D3016D937D93F0
:103130008D939C931397C701D801EB81FC81808309
:103140009183A283B38380E090E0A0E0B0E080931D
:10315000520290935302A0935402B09355020E94DE
:10316000EA45AF81B885A65BBC4F81E08C93289679
:103170000FB6F894DEBF0FBECDBFCF91DF911F9188
:103180000F91FF90EF90DF90CF90BF90AF909F9006
:103190008F907F906F905F904F903F902F90089509
:1031A000409192035091930320E630E0B901469F8D
:1031B0009001479F300D569F300D1124682F7727BF
:1031C00067FD7095C9018C569C4F0E94DC0C9C01D8
:1031D000909391038093900380E0232B09F081E08A
:1031E0000895EF92FF920F931F93CF93DF93EC011B
:1031F0007A018B01FC01649107C080EE9BE00E9484
:103200007A0F2196FE0164916623B9F780EE9BE068
:10321000B801A70122E00E943761DF91CF911F9191
:103220000F91FF90EF9008958091900390919103FA
:10323000019660E070E04AE050E00C947B0B8091D6
:10324000900390919103019660E070E00C941E0A47
:103250000F931F93CF93DF938C0180914D03809345
:103260005A0384E59DDF882309F44DC0E8DF0E94FE
:10327000396560935A03662309F445C0E3EDF2E033
:103280006491EF0107C080EE9BE00E947A0F2196C7
:10329000FE0164916623B9F70936110599F00A36E3
:1032A000110524F408361105E9F407C00D3611059F
:1032B00071F00A3D1105B1F40FC080EE9BE061E0B2
:1032C00071E00EC080EE9BE068E171E009C080EE25
:1032D0009BE06FE271E004C080EE9BE066E471E089
:1032E0000E941C1140915A0350E060E070E080EEB3
:1032F0009BE020E00E94CA6080EE9BE06AE00E94B2
:103300007A0F81E001C080E0DF91CF911F910F9192
:103310000895AF92BF92CF92DF92EF92FF920F93F8
:103320001F93CF93DF9312E2E12E13E0F12EC7E754
:10333000D3E000E010E0F801E754FD4F808130DF7A
:10334000882331F17CDF5B016C01F801E45EFC4F06
:103350008081882311F061E002C06091870370E0F2
:10336000882777FD8095982F0E946765F701208157
:103370003181428153810E94A5679B01AC01C60146
:10338000B5010E94EC63688379838A839B8309C0BB
:10339000F70180819181A281B38188839983AA8377
:1033A000BB830F5F1F4F84E090E0E80EF91E249668
:1033B0000430110509F0BFCF86E4F2DE8823D9F08E
:1033C0003EDF7B018C0160938803709389038093B7
:1033D0008A0390938B0320E030E040E050E00E94AD
:1033E000D366181644F4E0925202F092530200930E
:1033F000540210935502DF91CF911F910F91FF90CE
:10340000EF90DF90CF90BF90AF90089582DF89E476
:10341000C7DE882351F013DF60936B0370936C0356
:1034200080936D0390936E030CC080E090E0A0E069
:10343000B0E080936B0390936C03A0936D03B09303
:103440006E038AE4ADDE882351F0F9DE60936F03EA
:10345000709370038093710390937203089580E0DA
:1034600090E0A0E0B0E080936F0390937003A0938E
:103470007103B093720308952F923F924F925F921F
:103480006F927F928F929F92AF92BF92CF92DF9274
:10349000EF92FF920F931F93DF93CF93CDB7DEB7D9
:1034A0006E970FB6F894DEBF0FBECDBF87E478DE0F
:1034B000882309F409C4C3DE0E94346564307105B1
:1034C00009F43CC06530710554F46230710531F186
:1034D0006330710554F57723CCF40C94542B6A3582
:1034E000710509F4A0C36B35710534F46C317105B5
:1034F00011F00C94542B78C06B35710509F497C307
:103500006C35710511F00C94542B96C380915803BF
:10351000882321F4FEDEC0DB0C94872B80915803B6
:10352000882319F473DF81E006C080915803882353
:1035300029F46CDF80E0E9DA0C94872B80E530DE3B
:10354000882321F4AA24BB24650105C078DE0E94EB
:1035500039655B016C0183E523DE882359F06FDE5A
:1035600020E030E04AE754E40E94A5670E943965F4
:103570005B016C010E9457460FB6F894E090D80B9F
:10358000F090D90B0091DA0B1091DB0B0FBEEA0C17
:10359000FB1C0C1D1D1D0FB6F8948091D80B90914B
:1035A000D90BA091DA0BB091DB0B0FBE80936303B4
:1035B00090936403A0936503B093660303C00E94D5
:1035C0009B5135DA0FB6F8948091D80B9091D90BB6
:1035D000A091DA0BB091DB0B0FBE8E159F05A007F3
:1035E000B10768F30C94542B8091520290915302CE
:1035F000A0915402B091550280938C0390938D0357
:10360000A0938E03B0938F038091390290913A0278
:10361000909321038093200384E690E090933A02F4
:10362000809339020FB6F8948091D80B9091D90B02
:10363000A091DA0BB091DB0B0FBE809363039093E4
:103640006403A0936503B093660381E00E94F14593
:103650008091220390912303A0912403B09125032C
:103660008093770390937803A0937903B0937A03C0
:103670008091260390912703A0912803B0912903FC
:1036800080937B0390937C03A0937D03B0937E0390
:1036900080912A0390912B03A0912C03B0912D03CC
:1036A00080937F0390938003A0938103B093820360
:1036B00080912E0390912F03A0913003B09131039C
:1036C0008093830390938403A0938503B093860330
:1036D00080E090E0A0E0B0E080935202909353022B
:1036E000A0935402B093550288E55ADD882351F423
:1036F00089E556DD882331F48AE552DD882311F40B
:1037000081E001C080E080935602882351F488E56F
:1037100047DD882309F4D3C189E542DD882309F414
:10372000CEC180E090E0A0E0B0E0809322039093CF
:103730002303A0932403B09325038093260390933F
:103740002703A0932803B0932903FFEE8F2EF4E004
:103750009F2EF401E49082E293E066E273E04AE295
:1037600053E02EE233E00E94CE34E3EEF4E06591C4
:1037700075918591949120E030E040EC5FE30E94E8
:10378000A5675B016C01FF24E7FCF0940027F7FCC0
:103790000095102FC801B7010E9467659B01AC011D
:1037A000C601B5010E94A567609377037093780303
:1037B0008093790390937A03E7EEF4E06591759135
:1037C000859194910894811C911CF401D49020E07F
:1037D00030E040EC5FE30E94A5677B018C016D2D1A
:1037E000772767FD7095872F972F0E9467659B014C
:1037F000AC01C801B7010E94A56760937B03709379
:103800007C0380937D0390937E0320912902309165
:103810002A0240912B0250912C02209352023093A5
:1038200053024093540250935502E0902D02F090C1
:103830002E0200912F0210913002C801B7010E94A0
:10384000C564882344F4E0925202F092530200933C
:10385000540210935502609152027091530280916C
:1038600054029091550220E030E040E752E40E947B
:10387000CC647B018C0187E793E06BE773E04FE753
:1038800053E023E833E0EDE4CE2EE3E0DE2E0E94A9
:10389000AF390E945746E2EFF4E06591759185914A
:1038A000949120913203309133034091340350912D
:1038B00035030E94EC63609322037093230380938B
:1038C000240390932503EEEFF4E0659175918591C3
:1038D00094912091320330913303409134035091FD
:1038E00035030E94EC6360933E0370933F03809323
:1038F000400390934103EAE0F5E06591759185916D
:1039000094912091320330913303409134035091CC
:1039100035030E94EC6360934102709342028093EE
:10392000430290934402E6EFF4E06591759185912E
:103930009491209136033091370340913803509190
:1039400039030E94EC6360932603709327038093EE
:10395000280390932903E2E0F5E065917591859144
:103960009491209136033091370340913803509160
:1039700039030E94EC636093420370934303809386
:10398000440390934503EEE0F5E0659175918591D0
:103990009491209136033091370340913803509130
:1039A00039030E94EC636093450270934602809352
:1039B00047029093480282E293E066E273E04AE2B3
:1039C00053E02EE233E00E94CE34809122039091A6
:1039D0002303A0912403B091250380937703909350
:1039E0007803A0937903B0937A0380912603909192
:1039F0002703A0912803B091290380937B03909320
:103A00007C03A0937D03B0937E036091520270917A
:103A10005302809154029091550220E030E040E73B
:103A200052E40E94CC647B018C0187E793E06BE752
:103A300073E04FE753E023E833E00E94AF3980E0C2
:103A400090E0A0E0B0E08093520290935302A093E4
:103A50005402B09355020E9457460E94EA45809155
:103A6000770390917803A0917903B0917A038093C2
:103A7000220390932303A0932403B0932503809102
:103A80007B0390917C03A0917D03B0917E03809392
:103A9000260390932703A0932803B09329038091D2
:103AA0007F0390918003A0918103B0918203809362
:103AB0002A0390932B03A0932C03B0932D038091A2
:103AC0005602882321F488E56BDB882319F080E017
:103AD00090E0D7D980915602882321F489E560DBF4
:103AE000882319F081E090E0CCD988E559DB882360
:103AF000C9F09ADB611571058105910599F09FDB8D
:103B000020913203309133034091340350913503B7
:103B10000E94EC6360932203709323038093240339
:103B20009093250389E53CDB8823C9F07DDB611593
:103B300071058105910599F082DB20913603309162
:103B4000370340913803509139030E94EC6360932E
:103B50002603709327038093280390932903809171
:103B60005602882321F48AE51BDB882319F082E0C2
:103B700090E087D98AE514DB8823C9F055DB61150D
:103B800071058105910599F05ADB20913A03309136
:103B90003B0340913C0350913D030E94EC636093D2
:103BA0002A0370932B0380932C0390932D0382E2BE
:103BB00093E066E273E04AE253E02EE233E00E94D3
:103BC000CE3480E00E94F14580918C0390918D036A
:103BD000A0918E03B0918F03809352029093530271
:103BE000A0935402B0935502809120039091210339
:103BF00090933A02809339020FB6F8948091D80BD3
:103C00009091D90BA091DA0BB091DB0B0FBE809392
:103C1000630390936403A0936503B09366030E94CB
:103C2000EA450C94542B109287030C94542B81E09A
:103C3000809387030C94542B85E4B2DA882311F423
:103C40000E94574652E2E52E53E0F52E42E3C42E81
:103C500043E0D42E00E010E0F801E754FD4F8081EE
:103C60009FDA882321F1033059F4E9DAF701608300
:103C70007183828393838EE293E00E94B13417C0F4
:103C8000DEDAF60120813181428153810E94EC63AA
:103C9000F701608371838283938382E293E066E21B
:103CA00073E04AE253E02EE233E00E94CE340F5F2D
:103CB0001F4F84E090E0E80EF91EC80ED91E0430B4
:103CC000110551F60C94542B8DE46ADA882311F413
:103CD0000C94992AB4DA0E9434656937710511F49D
:103CE0000C9400276A3771050CF072C06C357105B1
:103CF00009F404C76D35710584F56135710509F462
:103D00007DC662357105BCF46231710509F48FC658
:103D10006331710534F46131710511F00C94542B49
:103D2000EDC06F31710509F4EFC06A32710511F011
:103D30000C94542B94C16335710509F474C6633532
:103D400071050CF46DC66435710509F470C66535EE
:103D5000710511F00C94542BBBC66D36710509F436
:103D600014C36E367105BCF46936710509F4EBC1F4
:103D70006A36710534F46836710511F00C94542BD1
:103D8000B6C16A36710509F405C66B36710511F0C6
:103D90000C94542B2EC66537710509F444C7663759
:103DA000710554F46237710509F44DC76337710525
:103DB00011F00C94542B27C76737710511F40C943C
:103DC00004276837710511F00C94542B0C94FE26CF
:103DD000623E710511F40C94DD28633E71050CF010
:103DE00041C06B3C710511F40C9405286C3C7105C5
:103DF000CCF46E3B710509F4BFC46F3B710534F41C
:103E00006C38710511F00C94542B8EC1683C71050F
:103E100011F40C946627693C710511F00C94542B35
:103E20000C94E3276E3C710511F40C94A1286F3CAF
:103E3000710564F46C3C710511F40C9423286D3CFD
:103E4000710511F00C94542B0C9443286C3D7105B2
:103E500011F40C94BF286D3D710511F00C94542B96
:103E60000C94CE2891E0653F790711F40C942A2A2E
:103E7000E1E0663F7E07F4F4F1E06E327F0711F473
:103E80000C94D82921E06F3272073CF46D527140D6
:103E900011F00C94542B0C94372991E06F32790770
:103EA00011F40C94E7296059714011F00C94542BD3
:103EB0000C94272AF3E06B387F0711F40C94332A13
:103EC00023E06C3872076CF481E0663F780711F4E8
:103ED0000C942D2A675F714011F00C94542B0C94B4
:103EE000302AE3E060397E0711F40C946F2A675E94
:103EF000734011F00C94542B0C94842A7798769884
:103F0000479843980C94542B0FB6F8946091D80BB3
:103F10007091D90B8091DA0B9091DB0B0FBE6093FF
:103F20005403709355038093560390935703209145
:103F30005003309151034091520350915303621B3F
:103F4000730B840B950B28EE33E040E050E00E94A9
:103F5000A968F22EE32ED42EC52E8DB79EB70897F2
:103F60000FB6F8949EBF0FBE8DBF0DB71EB70F5F83
:103F70001F4FCE010196EDB7FEB79283818384ED8A
:103F800094E0F80193838283622F732F842F952FFF
:103F90002CE330E040E050E00E94A968F80135834E
:103FA00024836F2D7E2D8D2D9C2D2CE330E040E061
:103FB00050E00E94A968F801778366830E94E70CAD
:103FC000E3EDF2E064918F018DB79EB708960FB6CE
:103FD000F8949EBF0FBE8DBF08C080EE9BE00E948C
:103FE0007A0F0F5F1F4FF80164916623B1F780EEDF
:103FF0009BE0BE016F5F7F4F0E941C1180EE9BE033
:104000006AE00E947A0F80919405882311F40C9441
:10401000542B1092940580914D03082F10E0000F4F
:10402000111F0953154FF80160817181882777FDB1
:104030008095982F0E94676520915B0230915C0209
:1040400040915D0250915E020E94D366181614F0F2
:104050000C94542BF801118210820C94542B83E59C
:104060009FD8882311F40C94542BE9D80E9434650E
:104070007B018C016B0180E593D8882361F0F7FC0C
:104080000AC0FFEFEF16F10409F02CF4D8D80E9413
:1040900034657B0103C0EE24EA94FE2CEDEBF2E0E4
:1040A000808191818E159F0511F40C94542B3296CA
:1040B00023E0ED32F207A1F780E1E816F10429F4DC
:1040C000D0924F03C0924E0304C0F7FE02C00C947E
:1040D000542B8E2D0E94305BEE2DF0E00C2C0E94B4
:1040E000695B8E2DB6010E94DE5D0C94542B88E630
:1040F00090E0AED8882311F00C94542B83E550D86F
:10410000882371F09CD820915A03022F10E0000FF1
:10411000111F0953154F0E943465F80171836083A4
:104120000E94254E0C94542B83E53AD8882311F431
:104130000C94542B84D80E9434657093CA0A6093FF
:10414000C90A0C94542B89E690E082D8882311F098
:104150000C94542BEEECF4E064918F0108C080EED7
:104160009BE00E947A0F0F5F1F4FF8016491662356
:10417000B1F7E0915A03F0E0EE0FFF1FEE0FFF1FC3
:10418000E353F54F408151816281738180EE9BE062
:1041900021E00E943761EBECF4E064918F0108C0EC
:1041A00080EE9BE00E947A0F0F5F1F4FF801649131
:1041B0006623B1F7E0915A03F0E0EE0FFF1FE953D9
:1041C000F54F60817181882777FD8095982F0E9437
:1041D0006765AB01BC0180EE9BE021E00E94376186
:1041E000E7ECF4E064918F0108C080EE9BE00E9450
:1041F0007A0F0F5F1F4FF80164916623B1F740916A
:10420000D30A5091D40A6091D50A7091D60A80EEF3
:104210009BE021E00E943761E4ECF4E064918F01BF
:1042200008C080EE9BE00E947A0F0F5F1F4FF801DD
:1042300064916623B1F76091C90A7091CA0A882710
:1042400077FD8095982F0E946765AB01BC0180EED9
:104250009BE021E00E943761E1ECF4E064918F0182
:1042600008C080EE9BE00E947A0F0F5F1F4FF8019D
:1042700064916623B1F780EE9BE040E050E060E09F
:1042800070E00E942A61EFEBF4E064918F0108C0B6
:1042900080EE9BE00E947A0F0F5F1F4FF801649140
:1042A0006623B1F74091CD0A5091CE0A6091CF0AB2
:1042B0007091D00A80EE9BE021E00E943761ECEB28
:1042C000F4E064918F0108C080EE9BE00E947A0FB9
:1042D0000F5F1F4FF80164916623B1F76091C70A21
:1042E0007091C80A882777FD8095982F0E9467658E
:1042F000AB01BC0180EE9BE021E00E943761E8EB5E
:10430000F4E064918F0108C080EE9BE00E947A0F78
:104310000F5F1F4FF80164916623B1F780915A0334
:1043200090E00E941A4EAC01662757FD6095762FEB
:1043300080EE9BE00E942A61E3EBF4E064918F0140
:1043400008C080EE9BE00E947A0F0F5F1F4FF801BC
:1043500064916623B1F78FEF9FEF0E941A4EAC0174
:10436000662757FD6095762F80EE9BE00E942A61BC
:1043700080EE9BE06DE571E00E941C1180EE9BE0F9
:104380006AE00E947A0F0C94872B8DE690E00E94E1
:104390002819882311F00C94542B1092940583E56E
:1043A0000E94D018882399F00E941F1920915A0367
:1043B000022F10E0000F111F0953154F0E943465A2
:1043C000F8017183608381E080934D0216C082E51D
:1043D0000E94D018882389F00E941F1920915A0347
:1043E000022F10E0000F111F0953154F0E94346572
:1043F000F8017183608310924D0283E50E94D0180A
:10440000882351F00E941F1960935B0270935C0235
:1044100080935D0290935E0282E40E94D01888230C
:1044200051F00E941F1960935702709358028093B5
:10443000590290935A0286E40E94D018882369F0AA
:104440000E941F1960935F02709360028093610263
:104450009093620281E0809394050E94254E0FB6EE
:10446000F8948090D80B9090D90BA090DA0BB09074
:10447000DB0B0FBE20915A03022F10E0109259035C
:10448000000F111FF801E953F54F608171818827F2
:1044900077FD8095982F0E946765000F111F0353C9
:1044A000154FF80120813181428153810E94D366EA
:1044B00018161CF481E080935903CC24CA94DC2C98
:1044C0007601E0EBF4E05490ECEAF4E06490E8EA82
:1044D000F4E074903BC1652D00EB14E008C080EE61
:1044E0009BE00E947A0F0F5F1F4FF80164916623D3
:1044F000B1F7E0915A03F0E0EE0FFF1FEE0FFF1F40
:10450000E353F54F408151816281738180EE9BE0DE
:1045100021E00E943761662D0CEA14E008C080EEAD
:104520009BE00E947A0F0F5F1F4FF8016491662392
:10453000B1F740915A0350E0662757FD6095762FFA
:1045400080EE9BE00E942A61672D08EA14E008C013
:1045500080EE9BE00E947A0F0F5F1F4FF80164917D
:104560006623B1F7F7FC23C00FB6F8942091D80B5F
:104570003091D90B4091DA0B5091DB0B0FBEC70184
:10458000B60168517C4F8F4F9F4F621B730B840B9A
:10459000950B28EE33E040E050E00E94A96880EEE1
:1045A0009BE0BA01A90120E00E94CA6006C080EE2B
:1045B0009BE06EE571E00E941C1180EE9BE06AE0DA
:1045C0000E947A0F0FB6F8948090D80B9090D90B78
:1045D000A090DA0BB090DB0B0FBE0E949B510E94A3
:1045E0001715FFEFCF16FFEFDF06FFEFEF06FFEF28
:1045F000FF0609F052C080915903E0915A038823C5
:1046000031F1F0E08F01000F111F000F111F035354
:10461000154FEE0FFF1FE953F54F60817181882719
:1046200077FD8095982F0E94676520E030E040E09C
:1046300050E40E94EB639B01AC01F8016081718141
:10464000828193810E94D36687FF58C062C0F0E0E8
:104650008F01000F111F000F111F0353154FEE0F95
:10466000FF1FE953F54F60817181882777FD8095A1
:10467000982F0E94676520E030E040E050E40E94FF
:10468000EC639B01AC01F8016081718182819381AF
:104690000E94C564181694F53CC0F7FC3AC0E0913E
:1046A0005A03F0E08F01000F111F000F111F035379
:1046B000154FEE0FFF1FE953F54F60817181882779
:1046C00077FD8095982F0E9467659B01AC01F801EA
:1046D00060817181828193810E94EB630E943465C5
:1046E00097FF07C090958095709561957F4F8F4F8C
:1046F0009F4F66307105810591055CF00FB6F89407
:10470000C090D80BD090D90BE090DA0BF090DB0B77
:104710000FBEFFEFCF16FFEFDF06FFEFEF06FFEF55
:10472000FF06A1F0F7FE01C0C2C70FB6F894809152
:10473000D80B9091D90BA091DA0BB091DB0B0FBE87
:104740008C199D09885E934008F0B1C70FB6F894A4
:104750008091D80B9091D90BA091DA0BB091DB0B23
:104760000FBE88199909AA09BB09895E9340A04028
:10477000B04008F0B0CE31CF83E50E94D018882336
:1047800061F00E941F190E9434657093CA0A6093F9
:10479000C90A81E080934D020FC082E50E94D018C3
:1047A000882351F00E941F190E9434657093CA0A31
:1047B0006093C90A10924D020FB6F894E090D80B9E
:1047C000F090D90B0091DA0B1091DB0B0FBE109219
:1047D00059036091C90A7091CA0A882777FD8095AC
:1047E000982F0E9467652091D30A3091D40A409196
:1047F000D50A5091D60A0E94D36618160CF08AC0CA
:1048000081E08093590386C00FB6F8948091D80B4D
:104810009091D90BA091DA0BB091DB0B0FBE8E19E2
:104820009F09A00BB10B895E9340A040B04008F4F3
:104830006CC0E0914D03F0E0EE0FFF1FEE0FFF1F85
:10484000E353F54FC080D180E280F380692D05EA03
:1048500014E008C080EE9BE00E947A0F0F5F1F4FAC
:10486000F80164916623B1F780EE9BE0B701A601E1
:1048700022E00E9437616A2D01EA14E008C080EE50
:104880009BE00E947A0F0F5F1F4FF801649166232F
:10489000B1F740914D0350E0662757FD6095762FA4
:1048A00080EE9BE00E942A616B2D0DE914E008C0A8
:1048B00080EE9BE00E947A0F0F5F1F4FF80164911A
:1048C0006623B1F74091D30A5091D40A6091D50A7A
:1048D0007091D60A80EE9BE021E00E94376180EE65
:1048E0009BE06DE571E00E941C1180EE9BE06AE0A8
:1048F0000E947A0F0FB6F894E090D80BF090D90B85
:104900000091DA0B1091DB0B0FBE0E949B510E94AD
:10491000171509C0E5EAF4E09490E1EAF4E0A49008
:10492000EDE9F4E0B490809159032091C90A3091E7
:10493000CA0A8823A9F0B901882777FD8095982FA6
:104940000E9467652091D30A3091D40A4091D50A1C
:104950005091D60A0E94D36618160CF455CFBAC6E9
:10496000B901882777FD8095982F0E94676520916F
:10497000D30A3091D40A4091D50A5091D60A0E94A8
:10498000C56488230CF0A6C680914D02882309F4E3
:104990003BCFA0C683E50E94D018882319F10E945E
:1049A0001F1920E030E040E050E00E94C5648823F9
:1049B0001CF460E070E011C00E941F1920E030E09C
:1049C0004FE753E40E94D36618161CF46FEF70E0B3
:1049D00004C00E941F190E94346570934F036093B6
:1049E0004E0362C68FEF90E090934F0380934E0387
:1049F0005BC610924F0310924E0356C60E94264E7D
:104A00000E945746439A0E94634610924F031092A9
:104A10004E0368EE73E080E090E00E94AD5D44C616
:104A200010921F0341C681E080931F033DC683E5BA
:104A30000E94D018882399F00E941F1920E030E0CE
:104A40004AE754E40E94A5670E94396560934E02CC
:104A500070934F02809350029093510225C688E5CF
:104A60000E94D018882309F049C689E50E94D01811
:104A7000882309F043C68AE50E94D018882309F0EC
:104A80003DC685E40E94D018882309F037C60E94ED
:104A90005746439A0E94634607C6779A10924A0384
:104AA00089E50E94D018882319F0769A10924B035A
:104AB0008AE50E94D018882319F0479A10924C0377
:104AC00085E40E94D018882309F4EEC5439AECC50A
:104AD00083E50E94D0180E941F1920E030E04AE7C9
:104AE00054E40E94A5670E94396560936703709340
:104AF00068038093690390936A03D6C568E3662EC2
:104B000065E0762E58E2252E55E0352E44E7442EFA
:104B100045E0542E88249924F401E754FD4F808108
:104B20000E94D018882309F45DC0F3E08F1609F0C5
:104B300052C00E941F195B016C0120E030E040EA86
:104B400051E40E94C56488230CF03FC0F3016081EA
:104B5000718182819381A60195010E94CC647B01C1
:104B60008C0160916C0570916D0580916E0590913E
:104B70006F05A80197010E94A56760936C0570936B
:104B80006D0580936E0590936F05F10160817181D1
:104B900082819381A80197010E94A567F10160833A
:104BA000718382839383F201608171818281938119
:104BB0000E946565A80197010E94A5670E9439655A
:104BC000F2016083718382839383F301A082B182B7
:104BD000C282D38207C00E941F19F30160837183D0
:104BE000828393830894811C911C84E090E0680E7A
:104BF000791E280E391E480E591E94E0891691041C
:104C000009F08ACF51C5E0EDF3E064918F0108C04F
:104C100080EE9BE00E947A0F0F5F1F4FF8016491B6
:104C20006623B1F741C58091900390919103059659
:104C30006AE270E00E94DC0CFC01009709F434C5C4
:104C40003197108231C5EDECF3E064918F0108C01B
:104C500080EE9BE00E947A0F0F5F1F4FF801649176
:104C60006623B1F7409122035091230360912403FE
:104C70007091250380EE9BE022E00E943761E9EC11
:104C8000F3E064918F0108C080EE9BE00E947A0FF0
:104C90000F5F1F4FF80164916623B1F7409126031F
:104CA00050912703609128037091290380EE9BE0C7
:104CB00022E00E943761E5ECF3E064918F0108C0C7
:104CC00080EE9BE00E947A0F0F5F1F4FF801649106
:104CD0006623B1F740912A0350912B0360912C0376
:104CE00070912D0380EE9BE022E00E943761E1ECA1
:104CF000F3E064918F0108C080EE9BE00E947A0F80
:104D00000F5F1F4FF80164916623B1F740912E03A6
:104D100050912F03609130037091310380EE9BE03E
:104D200022E00E943761E6EBF3E064918F0108C056
:104D300080EE9BE00E947A0F0F5F1F4FF801649195
:104D40006623B1F780E00E9445460E946765209186
:104D500038053091390540913A0550913B050E9444
:104D6000CC64AB01BC0180EE9BE022E00E94376185
:104D7000E2EBF3E064918F0108C080EE9BE00E94BB
:104D80007A0F0F5F1F4FF80164916623B1F781E03E
:104D90000E9445460E94676520913C0530913D0583
:104DA00040913E0550913F050E94CC64AB01BC018F
:104DB00080EE9BE022E00E943761EEEAF3E064912E
:104DC0008F0108C080EE9BE00E947A0F0F5F1F4F9B
:104DD000F80164916623B1F782E00E9445460E9483
:104DE0006765209140053091410540914205509101
:104DF00043050E94CC64AB01BC01D0C280E001C07D
:104E000081E00E94F14550C480EE9BE060E671E0D5
:104E10000E941C1180EE9BE06AE00E947A0FE6EA95
:104E2000F3E064918F0108C080EE9BE00E947A0F4E
:104E30000F5F1F4FF80164916623B1F7639903C0B8
:104E400069E771E002C06EE771E080EE9BE00E94CE
:104E50001C1180EE9BE06AE00E947A0FEEE9F3E01D
:104E600064918F0108C080EE9BE00E947A0F0F5F73
:104E70001F4FF80164916623B1F71C9903C069E7DD
:104E800071E002C06EE771E080EE9BE00E941C11B1
:104E900080EE9BE06AE00E947A0FE6E9F3E064911D
:104EA0008F0108C080EE9BE00E947A0F0F5F1F4FBA
:104EB000F80164916623B1F7649903C069E771E072
:104EC00002C06EE771E080EE9BE064C384E40E9460
:104ED000D018882309F4E8C30E941F1920E030E0AD
:104EE00040E05FE30E94A5677B018C0120E030E099
:104EF00040E050E00E94C564882359F40F2EF0E092
:104F0000CF2EF0E0DF2EF0E8EF2EFFE3FF2EF02DA6
:104F100011C0C801B701A80197010E94A5679B01B4
:104F2000AC01CA012BED3FE049E450E40E94A567C3
:104F30006B017C0180914D0380935A0384E50E94AC
:104F4000D018882341F10E941F190E94396560938F
:104F50005A036623A9F0E3EDF2E064918F0108C0E3
:104F600080EE9BE00E947A0F0F5F1F4FF801649163
:104F70006623B1F780EE9BE068E871E00E941C11A7
:104F800040915A0350E060E070E080EE9BE020E04A
:104F90000E94CA6084C380915A03082F10E0000F5A
:104FA000111F000F111F035C1D4F60E070E080E8CF
:104FB0009FE3A70196010E94CC64F801608371838E
:104FC0008283938371C309EB12E028E4E22E25E08B
:104FD000F22EF80180810E94D018882349F00E94A7
:104FE0001F190E943965F70160837183828393835F
:104FF0000F5F1F4F84E090E0E80EF91E92E00D3B3A
:10500000190739F70E9486344FC309EB12E098E282
:10501000E92E95E0F92EF80180810E94D0188823AE
:1050200039F00E941F19F701608371838283938393
:105030000F5F1F4F84E090E0E80EF91E92E00D3BF9
:10504000190749F731C383E50E94D018882351F02E
:105050000E941F1960935C0570935D0580935E0547
:1050600090935F0584E50E94D018882309F41CC33F
:105070000E941F196093600570936105809362051B
:105080009093630511C383E50E94D018882351F0E3
:105090000E941F19609358057093590580935A0513
:1050A00090935B0584E50E94D018882351F00E94FC
:1050B0001F1960937005709371058093720590932A
:1050C000730582E40E94D018882361F00E941F19A2
:1050D0000E94396560932405709325058093260509
:1050E0009093270588E50E94D018882351F00E94EC
:1050F0001F1960936405709365058093660590930E
:1051000067058AE50E94D018882351F00E941F1974
:10511000609368057093690580936A0590936B05A9
:1051200085E40E94D018882309F4BEC20E941F198A
:1051300060936C0570936D0580936E0590936F0579
:10514000B3C209EB12E082E3E82E83E0F82EF80107
:1051500080810E94D018882339F00E941F19F7011E
:1051600060837183828393830F5F1F4F84E090E09D
:10517000E80EF91E92E00C3B190749F795C283E54A
:105180000E94D018882309F48FC20E941F190E9420
:10519000346570933A026093390286C283E50E94B7
:1051A000D018882309F480C20E941F190E94346518
:1051B00070933C0260933B0277C280E50E94D01856
:1051C000882309F471C20E941F190E9434657B0173
:1051D00083E50E94D018882319F40FEF1FEF05C054
:1051E0000E941F190E9434658B01C8010196039724
:1051F00008F05AC2EDEBF2E0808191818E159F0597
:1052000009F452C2329623E0ED32F207A9F7F7FC17
:105210004BC20E945746DE2C8E2D0E94415B011529
:10522000110541F00130110581F08FEF0F3F180794
:10523000A1F403C000E010E010C0EE2DF0E00E94E9
:10524000655C00E010E0EE2341F401E010E005C0F1
:105250000E949B510E94171502C0ED2CFF24F701FC
:105260000E94655CF0E0E017F10791F71DC280E550
:105270000E94D018882351F00E941F1960936C027D
:1052800070936D0280936E0290936F0289E40E9486
:10529000D018882361F00E941F190E94354E609338
:1052A000700270937102809372029093730284E48F
:1052B0000E94D018882361F00E941F190E94414E5D
:1052C00060937402709375028093760290937702D4
:1052D00083E40E94D018882351F00E941F19609324
:1052E00078027093790280937A0290937B020E94F5
:1052F000034E80EE9BE06FE971E00E941C1180EE8E
:105300009BE062EA71E00E941C1140916C02509196
:105310006D0260916E0270916F0280EE9BE022E060
:105320000E94376180EE9BE066EA71E00E941C11EA
:10533000609170027091710280917202909173027B
:105340000E943B4EAB01BC0180EE9BE022E00E943C
:10535000376180EE9BE06AEA71E00E941C11609167
:1053600074027091750280917602909177020E948A
:10537000474EAB01BC0180EE9BE022E00E9437610A
:1053800080EE9BE06EEA71E00E941C114091780271
:105390005091790260917A0270917B0280EE9BE0DD
:1053A00022E00E94376180EE9BE06DE571E0F2C083
:1053B00083E50E94D018882329F460E070E080E043
:1053C00090E002C00E941F190E947D346DC185E4E7
:1053D0000E94D018882319F4CC24DD2412C00E9426
:1053E0001F190E9434656B0177FF0BC00F2EF0E090
:1053F000EF2EF0E0FF2EFCE80F2FF2E41F2FF02D30
:105400000AC00F2EF0E0EF2EF0E0FF2EF6E10F2F96
:10541000F3E41F2FF02D83E50E94D018882321F09C
:105420000E941F197B018C0183E40E94D0188823FD
:1054300019F425E030E005C00E941F190E94346570
:105440009B01C801B701A6010E9460532DC10E94B3
:1054500057462AC10E94920F03C00E94920F24C196
:105460000E94301121C188E50E94D018882351F094
:105470000E941F190E9434659B01AC0180E0B901B4
:105480000E94864D89E50E94D018882351F00E9421
:105490001F190E9434659B01AC0181E0B9010E9493
:1054A000864D8AE50E94D018882351F00E941F196A
:1054B0000E9434659B01AC0182E0B9010E94864DD7
:1054C00085E40E94D018882309F4EEC00E941F19B9
:1054D0000E9434659B01AC0183E0B90112C080E0F9
:1054E00064E873E00E94864D81E064E873E00E9406
:1054F000864D82E064E873E00E94864D83E06CE4B0
:1055000074E00E94864DD0C01092580380915F03D2
:1055100090916003A0916103B091620380935B035B
:1055200090935C03A0935D03B0935E030E941617F3
:10553000BBC084E50E94D018882309F470C00E9483
:105540001F190E94396560935A03662331F1E3ED18
:10555000F2E064918F0108C080EE9BE00E947A0F18
:105560000F5F1F4FF80164916623B1F780EE9BE057
:1055700062EB71E00E941C1140915A0350E060E020
:1055800070E080EE9BE020E00E94CA6080EE9BE02D
:1055900064EB71E00E941C1182C086E40E94D01866
:1055A0008823E1F00E941F197B018C01609388031E
:1055B0007093890380938A0390938B0320E030E0FB
:1055C00040E050E00E94D366181644F4E092520284
:1055D000F09253020093540210935502E3EDF2E06F
:1055E00064918F0108C080EE9BE00E947A0F0F5FEC
:1055F0001F4FF80164916623B1F780EE9BE065ECE4
:1056000071E00E941C1140914D0350E0662757FD48
:105610006095762F80EE9BE00E942A6140C0E3ED0A
:10562000F2E064918F0108C080EE9BE00E947A0F47
:105630000F5F1F4FF80164916623B1F7E3E8F3E0D1
:1056400064918F0108C080EE9BE00E947A0F0F5F8B
:105650001F4FF80164916623B1F7209192033091B6
:10566000930380E690E0289FB001299F700D389F3A
:10567000700D11246C567C4F80EE9BE00E941C1133
:10568000E1E8F3E064918F0108C080EE9BE00E94A6
:105690007A0F0F5F1F4FF80164916623B1F780EE18
:1056A0009BE06AE00E947A0F0E94CC1330C00FB6D4
:1056B000F8948091D80B9091D90BA091DA0BB0910E
:1056C000DB0B0FBE8093500390935103A0935203C2
:1056D000B09353030FB6F8948091D80B9091D90BE7
:1056E000A091DA0BB091DB0B0FBE80936303909314
:1056F0006403A0936503B0936603D6CF0E94574618
:1057000088E50E94D018882309F0C7C9C9C96E96D8
:105710000FB6F894DEBF0FBECDBFCF91DF911F91C2
:105720000F91FF90EF90DF90CF90BF90AF909F9040
:105730008F907F906F905F904F903F902F90089543
:10574000BF92CF92DF92EF92FF920F931F93CF936E
:10575000DF93A0E6EA2EF12CE2E2F5E0C490E8E95E
:10576000F5E0D490BB24B394E1C12D3071F02A331D
:1057700021F480911505882341F0809116059091C0
:1057800017058F3591050CF4ADC1E0911605F09128
:105790001705309719F410921505FAC1A091180554
:1057A000B0911905AE9D8001AF9D100DBE9D100DED
:1057B0001124E00FF11FEC56FC4F1082809115056B
:1057C000882309F08AC110921505A65EBA4F1C9273
:1057D000E801CC56DC4FCE016EE470E00E94DC0C98
:1057E0009C01009709F4D9C0909391038093900392
:1057F0002F5F3F4F2C1B3D0B200F311FC9018C56D3
:105800009C4F60E070E04AE050E00E947B0B6093A8
:105810001E0570931F05809320059093210520910C
:105820005B0330915C0340915D0350915E032F5FF9
:105830003F4F4F4F5F4F621773078407950709F477
:105840008DC180911805909119059C012E9DC00174
:105850002F9D900D3E9D900D11248C569C4F61E420
:1058600076E00E94C20C892B09F078C1E9EDF2E0E4
:105870006491EF0107C080EE9BE00E947A0F2196B1
:10588000FE0164916623B9F7EEE0F6E06491EF0162
:1058900007C080EE9BE00E947A0F2196FE01649182
:1058A0006623B9F755C01E274F5FFC01E40FF11DB9
:1058B000EC56FC4FE081EA32B1F73093910320932C
:1058C0009003C901019660E070E00E941E0A0E94E8
:1058D0003465212F30E02617370709F44DC0E9ED74
:1058E000F2E06491EF0107C080EE9BE00E947A0F26
:1058F0002196FE0164916623B9F7EFEEF5E064911D
:10590000EF0107C080EE9BE00E947A0F2196FE0116
:1059100064916623B9F71CC0E9EDF2E06491EF01F0
:1059200007C080EE9BE00E947A0F2196FE016491F1
:105930006623B9F7E5ECF5E06491EF0107C080EE6E
:105940009BE00E947A0F2196FE0164916623B9F7CD
:1059500040915B0350915C0360915D0370915E0325
:1059600080EE9BE00E942A6180EE9BE06AE00E944C
:105970007A0F0E94161745C080911E0590911F0551
:10598000A0912005B091210580935B0390935C0367
:10599000A0935D03B0935E0339C0CE016AE270E06C
:1059A0000E94DC0C009791F1E9EDF2E06491EF01C7
:1059B00007C080EE9BE00E947A0F2196FE01649161
:1059C0006623B9F7EBE9F5E06491EF0107C080EEDB
:1059D0009BE00E947A0F2196FE0164916623B9F73D
:1059E00040915B0350915C0360915D0370915E0395
:1059F00080EE9BE00E942A6180EE9BE06AE00E94BC
:105A00007A0F1092170510921605C2C080911805E2
:105A1000909119058E9D80018F9D100D9E9D100DFA
:105A20001124E801CC56DC4FCE0167E470E00E94FF
:105A3000DC0C9C01009709F43AC090939103809389
:105A400090032F5F3F4F2C1B3D0B200F311FC901CF
:105A50008C569C4F60E070E00E941E0A0E943465E4
:105A60006430710520F580915803882371F46D2D01
:105A7000C8E9D5E007C080EE9BE00E947A0F21962E
:105A8000FE0164916623B9F70DC06C2DC2E2D5E02A
:105A900007C080EE9BE00E947A0F2196FE01649180
:105AA0006623B9F780EE9BE06AE00E947A0F80914E
:105AB000180590911905019664E070E00E949668BF
:105AC00090931905809318058091220590912305E4
:105AD000019690932305809322051092170510924A
